:020000040800F2
:100000002008002035020008D717000869150008ED
:10001000D51700082B040008391D00080000000057
:10002000000000000000000000000000DB170008D6
:100030002D04000800000000D91700089D180008D2
:100040004F0200084F0200084F0200084F0200084C
:100050004F0200084F0200084F0200084F0200083C
:100060004F0200084F0200084F0200084F0200082C
:100070004F0200084F0200084F0200084F0200081C
:100080004F0200084F0200084F0200080000000065
:100090000000000000000000000000004F02000807
:1000A0004F020008451900084F0200084F020008DF
:1000B0004F0200084F0200084F0200084F020008DC
:1000C0004F0200084F0200084F0200084F020008CC
:1000D0004F0200084F0200084F0200080000000015
:1000E0004F0200084F0200084F0200080000000005
:1000F0000000000000000000000000004F020008A7
:10010000000000004F0200084F0200084F020008E4
:1001100000000000000000000000000000000000DF
:100120004F0200084F0200084F0200084F0200086B
:100130004F02000800000000000000000000000066
:100140000000000000000000000000004F02000856
:100150004F0200084F0200084F0200084F0200083B
:100160004F0200084F0200080000000000000000DD
:10017000000000000000000000000000000000007F
:10018000000000004F020008000000000000000016
:100190004F02000800F002F800F03CF80AA090E8D6
:1001A000000C82448344AAF10107DA4501D100F032
:1001B00031F8AFF2090EBAE80F0013F0010F18BFC3
:1001C000FB1A43F001031847DC1D0000FC1D000072
:1001D000103A24BF78C878C1FAD8520724BF30C873
:1001E00030C144BF04680C60704700000023002445
:1001F00000250026103A28BF78C1FBD8520728BF37
:1002000030C148BF0B6070471FB501F0B9FE1FBD7C
:1002100010B510BD00F0CFF81146FFF7F5FF01F063
:10022000B5FD00F0EDF803B4FFF7F2FF03BC00F0FA
:10023000F5F800000948804709480047FEE7FEE757
:10024000FEE7FEE7FEE7FEE7FEE7FEE7FEE7FEE786
:1002500004480549054A064B704700003519000857
:100260009501000820020020200800202004002022
:100270002004002053EA020C00F069802DE9F04BC5
:100280004FF00006002B1FBFB3FA83F503FA05F405
:1002900024FA05F65E4012BF1643B2FA82F502FA5E
:1002A00005F4C5F120051EBF22FA05FC44EA0C0442
:1002B000203556EA044C4FEA144418BF641C4FF032
:1002C00000084FF00009904271EB030C39D300296C
:1002D00019BFB1FA81F701FA07F6B0FA80F700FA10
:1002E00007F6C7F120071EBF20FA07FC46EA0C06F6
:1002F0002037B6FBF4FCA7EB0507103F07F01F0BF8
:10030000CBF120060CFA0BFB2CFA06F644BFB346E1
:100310000026202FA4BF5E464FF0000B5BEA060CC0
:1003200008BF4FF0010B19EB0B09ABFB027C48EB4C
:100330000608C01B06FB02CC0BFB03CC71EB0C01C7
:10034000C1E70B46024641464846BDE8F08B13B56F
:100350004FF000004FF00001AFF30080BDE81C40FB
:1003600070474FF0000200B5134694469646203978
:1003700022BFA0E80C50A0E80C50B1F12001BFF45E
:10038000F7AF090728BFA0E80C5048BF0CC05DF8C4
:1003900004EB890028BF40F8042B08BF704748BF12
:1003A00020F8022B11F0804F18BF00F8012B704786
:1003B000704770477047754600F02CF8AE46050050
:1003C0006946534620F00700854618B020B5FFF770
:1003D0003FFFBDE820404FF000064FF000074FF010
:1003E00000084FF0000B21F00701AC46ACE8C00953
:1003F000ACE8C009ACE8C009ACE8C0098D4670475C
:1004000010B50446AFF300802046BDE81040FFF76A
:100410000ABF000000487047C001002001491820B1
:10042000ABBEFEE7260002007047FEE77047000003
:100430002DE9F84FDFF8B8A1002201240AF1040BDE
:1004400003254FF00F090BF1040E00BF0B6804FAEF
:1004500002F63340B34273D10F7907F00307012F3F
:1004600001D0022F16D187684FEA420805FA08FC2E
:1004700027EA0C07D1F80CC00CFA08FC4CEA070C70
:10048000C0F808C04768B7430E79C6F30016964017
:100490003E4346600E79F643B6070DD0C768560056
:1004A00005FA06FC27EA0C07D1F808C00CFA06FC8E
:1004B0004CEA070CC0F80CC00E7906F00306022EB9
:1004C00010D1D60800EB8608D8F8206057074FEA0D
:1004D000D76C09FA0CF7BE430F6907FA0CF73743DC
:1004E000C8F8207006684FEA420C05FA0CF7BE43C4
:1004F0000F7907F0030707FA0CF7374307604E68D8
:1005000016F4403F6DD03B4E376847F48047376064
:10051000366822F0030706F480460096364E07EB55
:10052000060CDCF8086897073F0F09FA07F826EA77
:100530000806DFF8C880404503D14FF000081EE0F0
:100540004FE0DFF8BC80404502D14FF0010816E0D3
:10055000DFF8B080404502D14FF002080FE0DFF82D
:10056000A880404502D14FF0030808E0DFF89C80E6
:10057000404502D14FF0040801E04FF0070808FAA7
:1005800007F848EA0608CCF80888DAF80060574609
:10059000D1F804C09E435FEACC3C00D51E433E60C8
:1005A000DBF800605F46D1F804C09E435FEA8C3CF4
:1005B00000D51E433E60DEF800607746D1F804C0E7
:1005C0009E435FEACC2C00D51E433E60084F0C379B
:1005D0003E68D1F804C09E435FEA8C2C00D51E43D0
:1005E0003E60521C102AFFF431AFBDE8F88F0000C6
:1005F000003C01404438024000300140000002400D
:100600000004024000080240000C024000100240BA
:10061000014880687047000004000020024881689B
:100620000278114481607047040000200B4810B527
:10063000016841F400710160016841F4806101606A
:10064000016841F480710160032000F06FF80F2011
:1006500000F006F800F024F8002010BD003C024035
:1006600070B50D4D04464FF47A712878B1FBF0F067
:100670000A490968B1FBF0F000F00CFB48B9102CF6
:1006800007D200222146501E00F030F800206C6096
:1006900070BD012070BD000004000020100000208B
:1006A0000A4808B5016841F480410160006800F41F
:1006B000804000900548001F016841F080510160B2
:1006C000006800F08050009008BD000044380240EF
:1006D000002809DB00F01F02012191404009800041
:1006E00000F1E020C0F8001170470000F0B40E4B9C
:1006F0001B680C46C3F30223C3F10705042D00D980
:100700000425191D072901D2002300E0DB1E012664
:1007100006FA05F1491E214099409E40761E16407A
:100720003143F0BC01F009BB0CED00E0064900F0DC
:10073000070208684FF6FF03184040EA0220034A08
:1007400010430860704700000CED00E00000FA055F
:100750002DE9F0470E46050065D0DFF81481D8F882
:100760000000F7B200F00700B04207D288F800702E
:10077000D8F8000000F00700B04254D128683D4C82
:10078000810712D5400703D5206840F4E05020606F
:100790002878000703D5206840F460402060206876
:1007A000A96820F0F000084320602878C0072DD009
:1007B000304968680839012812D0022813D003286C
:1007C00011D00968890700292DDA216821F0030179
:1007D00001432160FFF71CFF814641F2883A0EE099
:1007E00009688903EFE709688901ECE7FFF710FF63
:1007F000A0EB0901514502D90320BDE8F08720682C
:10080000696800F00C00B0EB810FEFD1D8F8001050
:10081000404601F00701B14207D90770006800F0B7
:100820000700B04201D00120E7E72878400705D54E
:100830002068E96820F4E050084320602878000729
:1008400006D52068296920F4604040EAC100206094
:1008500000F038F82168084AC1F30311515CC84020
:100860000649086006480068FFF7FAFE0020C4E762
:10087000003C0240083802408A1F00081000002097
:10088000080000200448054900680968044AC1F3CB
:100890008221515CC8407047100000200838024097
:1008A0009A1F00080448054900680968044AC1F312
:1008B0004231515CC84070471000002008380240A7
:1008C0009A1F0008154810B5006810F00C02144873
:1008D00013D01449042A0FD0082A0ED10F4C241F1C
:1008E0002268236802F03F025B0207D52068C0F34C
:1008F0008810A0FB010106E0084610BD2168C1F385
:100900008811A1FB00010023FFF7B4FC2168C1F3AB
:100910000141491C4900B0FBF1F010BD083802400C
:100920000024F40040787D012DE9F84F04006ED0DA
:100930002078DFF84C93C007A9F104054AD009F1EB
:1009400004000168C1F38101012908D00068C0F3E7
:10095000810002280AD1D9F80000400206D5286893
:10096000800337D560680028E1D033E06068B0F5D7
:10097000803F10D0B0F5A02F286810D020F4803030
:100980002860286820F4802028606068A8B1FFF7FC
:100990003FFE06460DE0286840F48030F4E740F45E
:1009A00080202860F7E700BFFFF732FE801B642835
:1009B00073D828688003F7D50CE0FFF729FE0646B8
:1009C00005E000BFFFF724FE801B6428F0D82868EC
:1009D0008003F7D42078DFF8AC8280074FF0000A5C
:1009E0003ED5A748001D016811F00C0F08D0006823
:1009F000C0F3810002280BD1D9F80000400207D4CF
:100A00002868800716D5E068012800D112E033E19C
:100A1000E068B8B10120C8F80000FFF7F9FD06460C
:100A200005E000BFFFF7F4FD801B0228C0D828684E
:100A30008007F7D52868216920F0F80040EAC10056
:100A400028600DE0C8F800A0FFF7E2FD064604E0CC
:100A5000FFF7DEFD801B02281FD828688007F7D427
:100A60002078000722D5864F87486169703771B1B9
:100A700001210160FFF7CCFD064604E0FFF7C8FD49
:100A8000801B022809D838688007F7D50EE0C0F827
:100A900000A0FFF7BDFD064605E082E0FFF7B8FDC8
:100AA000801B02287DD838688007F7D4207840075B
:100AB00068D5DFF8CCB100270BF13C0BDBF8000068
:100AC000C0000BD4DBF8001041F08051CBF80010CF
:100AD000DBF80000012700F0805000906B4E30687A
:100AE000C00510D4306840F480703060FFF790FD8E
:100AF000009005E0FFF78CFD0099401A022850D8BD
:100B00003068C005F6D55E4EA0686C3601280FD05F
:100B10000528306810D020F001003060306820F0E7
:100B200004003060A068B8B1FFF772FD00900FE0DC
:100B3000306840F00100F4E740F004003060F7E76F
:100B4000FFF766FD0099411A41F28830814266D86C
:100B500030688007F4D50EE0FFF75AFD009007E0FB
:100B6000FFF756FD0099411A41F28830814256D86C
:100B700030688007F4D42FB1DBF8001021F08051E9
:100B8000CBF80010A069C8B33D49091D0968C1F33D
:100B9000810102294AD00228504607D0C8F86000D7
:100BA00000E03CE0FFF734FD04463BE04746C8F870
:100BB0006000FFF72DFD064605E000BFFFF728FDAA
:100BC000801B02282BD828688001F7D4D4E90701BC
:100BD0000843A16A2E4A490802EB0141626A41EAD0
:100BE0008211084394F82C1040EA0161C9F8001002
:100BF00001203866FFF70CFD044606E03EE000BF2A
:100C0000FFF706FD001B022809D828688001F7D5E8
:100C100034E000BFFFF7FCFC001B022802D90320D0
:100C2000BDE8F88F28688001F4D427E00128F7D0C8
:100C3000D9F80000E26900F4800191421CD1226AD7
:100C400000F03F01914217D147F6C071626A01403E
:100C5000B1EB821F10D1A26A4FF0FF3300F4403194
:100C600003EB5202B1EB024F06D194F82C1000F0C6
:100C70007060B0EB016F01D00120D1E70020CFE719
:100C80000438024000004742800E47420070004096
:100C90000000FFFF10B5401EB0F1807F01D301209E
:100CA00010BD4FF0E02460610F21601701F045F89E
:100CB0000020A06107202061002010BD7047704710
:100CC00070B590F83C20012A2CD0012480F83C40DB
:100CD000022280F83D2003685A689D6822F0700661
:100CE0000A6832435A60104B02689A420ED0B2F141
:100CF000804F0BD00D4B9A4208D00D4B9A4205D035
:100D00000C4B9A4202D00C4B9A4204D1496825F010
:100D100080031943916080F83D40002180F83C1029
:100D2000084670BD022070BD000001400004004074
:100D300000080040000C00400040014010B50400D5
:100D400003D094F83D0010B107E0012010BD002051
:100D500084F83C00204600F01FF8022084F83D0093
:100D6000211D206800F0F4FD012084F8460084F87D
:100D70003E0084F83F0084F8400084F8410084F885
:100D8000420084F8430084F8440084F8450084F865
:100D90003D00002010BD000008B500680B498842E6
:100DA00012D10B48016841F0010101600068002286
:100DB00000F00100009011461920FFF797FCBDE8F4
:100DC00008401920FFF784BC08BD00000000014066
:100DD0004438024090F83D10012901D001207047AD
:100DE000022180F83D100168CA6842F00102CA6021
:100DF00000680E4988420ED0B0F1804F0BD00C49EC
:100E0000884208D00B49884205D00B49884202D05D
:100E10000A49884204D1816801F00701062903D0FC
:100E2000016841F0010101600020704700000140AD
:100E30000004004000080040000C00400040014059
:100E400070B5044690F83C000025012817D0012613
:100E500084F83C60022084F83D002068826822F01B
:100E6000770222F47F4282600868502838D00DDC77
:100E700020284FD005DC90B3102811D14AE0022081
:100E800070BD302846D040280AD13BE060282FD0E2
:100E900070280DD0B0F5805F03D0B0F5005F12D0A0
:100EA000012584F83D60002084F83C00284670BD90
:100EB000CB68D1E90121206800F0A3FD206881689A
:100EC00041F0770109E0CB68D1E90121206800F009
:100ED00098FD2068816841F480418160E1E719E074
:100EE000CA684968206800F041FE5021206806E089
:100EF000CA684968206800F04AFE6021206800F056
:100F00008AFDCEE7CA684968206800F02FFE4021BC
:100F10002068F4E7226801461046F0E7704770B594
:100F20000446006801694FF00005C943890715D4DC
:100F3000C168C943890711D4E91E016101202077E6
:100F4000206880698007204602D0FFF7E7FF04E0B1
:100F500000F004F9204600F0CDF9257720680169FA
:100F6000C943490717D4C168C943490713D46FF06F
:100F700004010161022020772068806910F4407F1D
:100F8000204602D0FFF7CAFF04E000F0E7F8204651
:100F900000F0B0F9257720680169C943090716D424
:100FA000C168C943090712D46FF008010161042028
:100FB00020772068C0698007204602D0FFF7AEFF87
:100FC00004E000F0CBF8204600F094F92577206883
:100FD0000169C943C90617D4C168C943C90613D4F6
:100FE0006FF010010161082020772068C06910F4BB
:100FF000407F204602D0FFF791FF04E000F0AEF8FA
:10100000204600F077F9257720680169C943C907B0
:1010100008D1C168C943C90704D1891E01612046AE
:1010200000F0C2F920680169C943090609D4C16802
:10103000C943090605D46FF0800101612046FFF71E
:101040003DFE20680169C943490609D4C168C94306
:10105000490605D46FF040010161204600F0BEF959
:1010600020680169C94389060BD4C168C943890650
:1010700007D46FF0200101612046BDE87040FFF702
:101080001EBE70BDF0B587B0044614216846FFF758
:1010900068F9246800222B49022301252A48B4F16B
:1010A000804F17D0294F2A4EBC4224D1086840F007
:1010B0000200086008680095CDE9013200F00200E6
:1010C000CDE90430694603924FEA0600FFF7B0F914
:1010D00007B0F0BD0C6844F001040C60096801F031
:1010E000010105914FF400410091CDE90132CDE9B4
:1010F00003256946EAE7174FBC4210D1086840F063
:10110000020008600868694600F00200059040206F
:101110000090CDE901323046CDE90323D6E70E4EEB
:10112000B442D5D10C6844F001040C600968009504
:10113000CDE9013201F00101CDE9043103926946A4
:10114000C4E70000303802400000024000040040C4
:101150000004024000080040000C0040704770B5D9
:10116000044690F83C0000260D4601280FD00120CF
:1011700084F83C006AB1042A1DD0082A2FD00C2A1A
:101180003FD00126002084F83C00304670BD02208C
:1011900070BD206800F048FC2068816941F00801BA
:1011A00081612068816921F0040181612068816981
:1011B0002A69114311E0206800F05EFC2068816913
:1011C00041F4006181612068816921F4806181615D
:1011D000206881692A6941EA02218161D2E7206899
:1011E00000F076FC2068C16941F00801C161206807
:1011F000C16921F00401C1612068C1692A691143F4
:1012000011E0206800F090FC2068C16941F40061A1
:10121000C1612068C16921F48061C1612068C16930
:101220002A6941EA0221C161ACE710B5040003D08C
:1012300094F83D0010B107E0012010BD002084F8B3
:101240003C00204600F01EF8022084F83D00211DDD
:10125000206800F07DFB012084F8460084F83E0001
:1012600084F83F0084F8400084F8410084F842008C
:1012700084F8430084F8440084F8450084F83D0075
:10128000002010BD08B501681648B1F1804F0BD0A1
:10129000154A914210D1016841F0020101600068D5
:1012A00000F00200009008BD016841F001010160FA
:1012B000006800F00100F5E70C4A914207D101688F
:1012C00041F004010160006800F00400EAE7084A08
:1012D0009142E8D1016841F008010160006800F026
:1012E0000800DFE7403802400004004000080040EA
:1012F000000C00407047000010B50446022249B1BE
:1013000004290ED0082913D094F84100012816D0E2
:10131000012010BD94F83E000128F9D184F83E2048
:101320000FE094F83F000128F2D184F83F2008E054
:1013300094F840000128EBD184F8402001E084F8C3
:1013400041200122206800F04FFB124920688842AA
:1013500003D1426C42F400424264206888420ED0BD
:10136000B0F1804F0BD00C49884208D00B4988421D
:1013700005D00B49884202D00A49884204D18168CD
:1013800001F00701062903D0016841F00101016065
:10139000002010BD00000140000400400008004093
:1013A000000C00400040014010B500680949884227
:1013B0000FD1002000F0DEFC002000F0CFFC002068
:1013C00000F0DEFC002000F0CFFC0349002009689B
:1013D000486210BD0000014014000020704770B545
:1013E000040004D094F83D00002510B106E001206F
:1013F00070BD84F83C50204600F022F8242084F888
:101400003D002068C16821F40051C160204600F011
:10141000D1FB2068016921F4904101612068416994
:1014200021F02A0141612068C16841F40051C16086
:101430002564202084F83D0084F83E00002070BD23
:1014400010B586B0044614216846FEF78AFF13499A
:101450002068884220D112480021026842F40032FC
:101460000260006800F4003005900D4810380268F2
:1014700042F001020260006800F0010005900C20BB
:1014800000900220CDE90101032003900720049081
:1014900069460448FEF7CCFF06B010BD004400408A
:1014A00040380240000002402DE9F84F044690F811
:1014B0003E009A4616460D46202853D1FDB1F6B19E
:1014C00094F83C0001284DD0012084F83C0000270E
:1014D0002764222084F83E002763FFF799F8A68549
:1014E0008146E685A0684FF48058404501D12069C7
:1014F00040B12E465FF0000584F83C7027E00120E3
:10150000BDE8F88F0026F7E74B4600222021204651
:10151000CDF800A000F0D4FB08B10320F0E726B11D
:10152000A06840451BD038B108E020684068C0F38F
:10153000080025F8020B07E0206980B120684068A8
:1015400000F07F0006F8010BE08D401EE085E08D85
:101550000028D9D1202084F83E000020D0E7206860
:101560004068EFE70220CBE7FEE7000010B586B049
:10157000002418480094019402940394049414499C
:101580000594016040F24F11C0E901144CF24F3153
:10159000C0E9031444618461FFF7D0FB08B172B65F
:1015A000FEE74FF48050009069460A48FFF748FC78
:1015B00008B172B6FEE7049404A906480594FFF743
:1015C0007FFB002801D072B6FEE706B010BD000018
:1015D000000001401400002030B589B000250795B7
:1015E0001C2168460895FEF7BCFE194C4FF0804060
:1015F000206040F24F10C4E9010540F2F310C4E945
:1016000003052046A561FFF710FE08B172B6FEE79C
:10161000079507A90E480895FFF752FB08B172B667
:10162000FEE76020CDE900050295002269460848E2
:101630000495FFF794FD08B172B6FEE72068816952
:1016400021F0080181610248FFF71CFD09B030BD9F
:101650005C00002030B589B0002507951C21684644
:101660000895FEF77EFE1A4C1848206040F24F1095
:10167000C4E9010540F2F310C4E903052046A56161
:10168000FFF7D3FD08B172B6FEE7079507A910482A
:101690000895FFF715FB08B172B6FEE76020CDE9AB
:1016A000000502950822694609480495FFF757FD91
:1016B00008B172B6FEE72068C16921F00801C16176
:1016C0000348FFF7DFFC09B030BD00000004004014
:1016D000A400002030B589B0002507951C2168467C
:1016E0000895FEF73EFE1A4C1848206040F24F1055
:1016F000C4E9010540F2F310C4E903052046A561E1
:10170000FFF793FD08B172B6FEE7079507A91048E9
:101710000895FFF7D5FA08B172B6FEE76020CDE96B
:10172000000502950022694609480495FFF717FD58
:1017300008B172B6FEE72068816921F00801816175
:101740000348FFF79FFC09B030BD000000080040CF
:10175000EC00002030B589B0002507951C216846B3
:101760000895FEF7FEFD1A4C1848206040F24F1015
:10177000C4E9010540F2F310C4E903052046A56160
:10178000FFF753FD08B172B6FEE7079507A91048A9
:101790000895FFF795FA08B172B6FEE76020CDE92B
:1017A000000502950022694609480495FFF7D7FC19
:1017B00008B172B6FEE72068816921F008018161F5
:1017C0000348FFF75FFC09B030BD0000000C00408B
:1017D00034010020FEE7FEE77047704707490968BB
:1017E0004863074909684863064940F2F3100968ED
:1017F000486305490968C86370470000EC00002091
:101800005C00002034010020A40000200749096882
:101810004863074A40F2F31112685163054A12689F
:10182000516305490968C86370470000EC00002057
:101830005C00002034010020A4000020074A40F290
:10184000F31112685163064A126851630549096829
:10185000486305490968C86370470000EC00002030
:101860005C00002034010020A4000020074A40F260
:10187000F31112685163064A12685063054A1268F0
:10188000506305480068C16370470000EC00002009
:101890005C00002034010020A4000020FEF7BEBE42
:1018A00030B593B030216846FEF75BFD14210CA8DB
:1018B000FEF757FD1D480024016841F0805101608A
:1018C000006800F0805011901948016821F44041EF
:1018D00041F4004101600068022500F4404011908D
:1018E0000120039010200490009506950820CDE972
:1018F00007405420CDE9090504200B906846FFF706
:1019000013F808B172B6FEE70F20CDE90C054FF4CD
:101910008050CDE90E4002210CA81094FEF718FF6C
:10192000002801D072B6FEE713B030BD4038024047
:10193000007000400248016841F470010160704786
:1019400088ED00E00148FFF7EABA0000140000202B
:10195000F0B502681D4B1E4C9F031E4D1E4E984253
:1019600007D0B84205D0A04203D0A84201D0B0426F
:1019700004D122F0700C4A6842EA0C02984210D05E
:10198000B8420ED0A0420CD0A8420AD0B04208D033
:10199000124CA04205D0124CA04202D0114CA042E1
:1019A00003D122F44074CA6822434C6922F08002B9
:1019B000224302608A68C2620A688262984201D148
:1019C0000969016301214161F0BD0000000001408F
:1019D0000004004000080040000C004000400140AE
:1019E000004401400048014010B501F01F030121EF
:1019F000046A99408C430462016A9A40114301626F
:101A000010BD10B5846842EA032224F47F440A43DF
:101A10002243826010BD826822F070020A4342F0C5
:101A2000070181607047000030B5026A22F00102B0
:101A30000262026A4368846924F073050C682C43CF
:101A400022F002058A682A430A4DA8420BD122F0EF
:101A50000805CA6823F440732A434D6922F0040242
:101A60001D438B692B434360846149684163026273
:101A700030BD00000000014030B5026A22F01002C3
:101A80000262026A436884690D6824F4E64444EA09
:101A900005248D6822F0200242EA05120B4DA8426F
:101AA0000ED1CD6822F0800242EA05124D6923F47E
:101AB000406343EA85038D6922F0400243EA8503CF
:101AC0004360846149688163026230BD0000014067
:101AD00030B5026A22F480720262036A4268C46905
:101AE00023F4007324F073050C682C438D6843EADB
:101AF00005230C4DA8420ED1CD6823F4006343EAC0
:101B000005234D6922F4405242EA05128D6923F4FF
:101B1000806342EA05124260C4614968C16303629E
:101B200030BD00000000014030B5026A22F480524E
:101B30000262046A4268C3690D6823F4E64343EA1B
:101B400005238D6824F4005444EA0534064DA84268
:101B500004D14D6922F4804242EA85124260C36199
:101B600049680164046230BD0000014010B5036A99
:101B7000046A24F001040462846924F0F00444EA55
:101B8000021423F00A020A438461026210BD10B5F8
:101B9000036A23F0100303628369046A23F4704329
:101BA00043EA023224F0A00343EA01118261016298
:101BB00010BD000070B5044600680169E26821F4B8
:101BC0004051114301612169A068E26908436169DC
:101BD000114308432168CA6849F20C639A430243DF
:101BE000CA6020684169A26921F4407111434161D2
:101BF00031492068884202D03049884202D1FEF73C
:101C000051FE01E0FEF73EFEE26900231921642542
:101C10003226B2F5004F626828D0A0FB0101930F75
:101C20009200FEF727FB0146B0FBF5F06FF01802BB
:101C3000504301EB800006EB0010B0FBF5F000F024
:101C4000F002B1FBF5F002EB0012B1FBF5F06FF022
:101C50001803584301EB800006EB0010B0FBF5F0D1
:101C600000F00F0021681044886070BDA0FB0101E6
:101C700092185B41FEF7FEFA0146B0FBF5F0020157
:101C8000B1FBF5F06FF01803584301EB800006EB51
:101C9000C000B0FBF5F000F0F80002EB4002B1FB31
:101CA000F5F0584301EB800006EBC000B0FBF5F007
:101CB00000F00700D6E700000010014000140140CA
:101CC0002DE9F041984617460E460446069D27E04A
:101CD000681C25D02DB1FEF79BFCA0EB0800A842A4
:101CE0001ED920680C3050E8001F21F4D07140E864
:101CF0000012002AF5D12068143050E8001F21F0AE
:101D0000010140E80012002AF5D1202084F83D00AE
:101D100084F83E00002084F83C000320BDE8F081F8
:101D20002068006836EA000004D00020B842CFD016
:101D30000020F3E70120F9E7FEE70907090E002874
:101D400004DB00F1E02080F80014704700F00F0081
:101D500000F1E02080F8141D704700000149096877
:101D6000486370475C00002001490968C8637047F8
:101D7000A40000200149096848637047EC00002076
:101D800001490968486370473401002008B5FEF72F
:101D90004DFCFFF785FD2D480024016841F001014D
:101DA0000160016801F001010091016841F0020148
:101DB0000160006800F002000090FFF74BFCFFF7A5
:101DC00089FCFFF7D3FBFFF707FCFFF7C3FC2148B3
:101DD0001F4901604FF4E131C0E901140C21C460D6
:101DE000C0E904418461C461FFF7F9FA08B172B631
:101DF000FEE7002000F058F8002000F031F8002045
:101E000000F064F8002000F03DF800F077F800F0F2
:101E100081F800F06DF800F077F80F48FEF7DAFF70
:101E20000D4E0E4D4FF0FF373B4602220B4909483D
:101E3000FFF73AFB0028F7D128780028F4D0306863
:101E40004462064800F06CF82C80EDE73038024020
:101E5000004400407C01002014000020000000200D
:101E600000B587B06021CDE9001000200290024645
:101E7000049069460248FFF772F907B000BD000000
:101E80005C00002000B587B06021CDE90010002083
:101E900002900490082269460248FFF760F907B0F3
:101EA00000BD0000A400002000B587B06021CDE98E
:101EB0000010002002900246049069460248FFF795
:101EC0004EF907B000BD0000EC00002000B587B05F
:101ED0006021CDE90010002002900246049069467E
:101EE0000248FFF73CF907B000BD000034010020B4
:101EF00000210148FFF700BA5C00002008210148DA
:101F0000FFF7FAB9A400002000210148FFF7F4B957
:101F1000EC00002000210148FFF7EEB93401002059
:101F200002784FF4FA71012A0ED0022A15D0032A42
:101F30001CD0042A23D14078404200EB800001EB02
:101F4000400080B2FFF792BC4078404200EB800036
:101F500001EB400080B2FFF741BC4078404200EB0B
:101F6000800001EB400080B2FFF750BC4078404257
:101F700000EB800001EB400080B2FFF75FBC7047D0
:101F80004FF04070E1EE100A7047000000000000C2
:101F90000000010203040607080900000000010216
:101FA00003040000C41F000800000020140000000B
:101FB000D0010008D81F0008140000200C08000001
:101FC000EC0100080000000001000000100000000B
:081FD000000000000024F400F1
:040000050800019559
:00000001FF
